:020000040800F2
:1000000010040020050100086501000861010008D6
:10001000630100084D0100087101000800000000A4
:10002000000000000000000000000000690100085E
:100030004F01000800000000670100086B01000884
:100040001F0100081F0100081F0100081F01000810
:100050001F0100081F0100081F0100081F01000800
:100060001F0100081F0100081F0100081F010008F0
:100070001F0100081F0100081F0100081F010008E0
:100080001F0100081F0100081F0100081F010008D0
:100090001F0100081F0100081F0100081F010008C0
:1000A0001F0100081F0100081F0100081F010008B0
:1000B0001F0100081F0100081F0100081F010008A0
:1000C0001F0100081F0100081F0100081F01000890
:1000D0001F0100081F0100081F0100081F01000880
:1000E0001F0100081F0100081F010008DFF810D0E1
:1000F00000F01AF80048004791010008AFF30080B3
:10010000100400200648804706480047FEE7FEE747
:10011000FEE7FEE7FEE7FEE7FEE7FEE7FEE7FEE7B7
:100120006F010008ED000008064C074D06E0E0688E
:1001300040F0010394E8070098471034AC42F6D32E
:10014000FFF7D8FF9C010008BC010008FEE77047DC
:1001500002488168027811448160704700000020E5
:10016000FEE7FEE7FEE770477047FFF7F1BF704715
:10017000FEE702E008C8121F08C1002AFAD1704742
:100180007047002001E001C1121F002AFBD1704717
:1001900010B5FFF7E7FF002010BD0000BC0100080C
:1001A000000000200C00000072010008C8010008D7
:1001B0000C0000200404000082010008010000007F
:0801C000100000000000000027
:04000005080000ED02
:00000001FF
